{
  "contractName": "Checkin",
  "abi": [
    {
      "inputs": [],
      "stateMutability": "nonpayable",
      "type": "constructor"
    },
    {
      "anonymous": false,
      "inputs": [
        {
          "indexed": true,
          "internalType": "address",
          "name": "owner",
          "type": "address"
        },
        {
          "indexed": true,
          "internalType": "address",
          "name": "approved",
          "type": "address"
        },
        {
          "indexed": true,
          "internalType": "uint256",
          "name": "tokenId",
          "type": "uint256"
        }
      ],
      "name": "Approval",
      "type": "event"
    },
    {
      "anonymous": false,
      "inputs": [
        {
          "indexed": true,
          "internalType": "address",
          "name": "owner",
          "type": "address"
        },
        {
          "indexed": true,
          "internalType": "address",
          "name": "operator",
          "type": "address"
        },
        {
          "indexed": false,
          "internalType": "bool",
          "name": "approved",
          "type": "bool"
        }
      ],
      "name": "ApprovalForAll",
      "type": "event"
    },
    {
      "anonymous": false,
      "inputs": [
        {
          "indexed": false,
          "internalType": "uint256",
          "name": "tokenId",
          "type": "uint256"
        },
        {
          "indexed": false,
          "internalType": "address",
          "name": "renter",
          "type": "address"
        },
        {
          "indexed": false,
          "internalType": "uint256",
          "name": "endDate",
          "type": "uint256"
        }
      ],
      "name": "Rent",
      "type": "event"
    },
    {
      "anonymous": false,
      "inputs": [
        {
          "indexed": false,
          "internalType": "uint256",
          "name": "tokenId",
          "type": "uint256"
        },
        {
          "indexed": false,
          "internalType": "uint256",
          "name": "pricePerNight",
          "type": "uint256"
        }
      ],
      "name": "RentalRelisted",
      "type": "event"
    },
    {
      "anonymous": false,
      "inputs": [
        {
          "indexed": false,
          "internalType": "uint256",
          "name": "tokenId",
          "type": "uint256"
        },
        {
          "indexed": false,
          "internalType": "address",
          "name": "proprietaire",
          "type": "address"
        },
        {
          "indexed": false,
          "internalType": "uint256",
          "name": "pricePerNight",
          "type": "uint256"
        }
      ],
      "name": "TokenMinted",
      "type": "event"
    },
    {
      "anonymous": false,
      "inputs": [
        {
          "indexed": true,
          "internalType": "address",
          "name": "from",
          "type": "address"
        },
        {
          "indexed": true,
          "internalType": "address",
          "name": "to",
          "type": "address"
        },
        {
          "indexed": true,
          "internalType": "uint256",
          "name": "tokenId",
          "type": "uint256"
        }
      ],
      "name": "Transfer",
      "type": "event"
    },
    {
      "anonymous": false,
      "inputs": [
        {
          "indexed": true,
          "internalType": "uint256",
          "name": "tokenId",
          "type": "uint256"
        },
        {
          "indexed": true,
          "internalType": "address",
          "name": "user",
          "type": "address"
        },
        {
          "indexed": false,
          "internalType": "uint64",
          "name": "expires",
          "type": "uint64"
        }
      ],
      "name": "UpdateUser",
      "type": "event"
    },
    {
      "inputs": [
        {
          "internalType": "address",
          "name": "to",
          "type": "address"
        },
        {
          "internalType": "uint256",
          "name": "tokenId",
          "type": "uint256"
        }
      ],
      "name": "approve",
      "outputs": [],
      "stateMutability": "nonpayable",
      "type": "function"
    },
    {
      "inputs": [
        {
          "internalType": "address",
          "name": "owner",
          "type": "address"
        }
      ],
      "name": "balanceOf",
      "outputs": [
        {
          "internalType": "uint256",
          "name": "",
          "type": "uint256"
        }
      ],
      "stateMutability": "view",
      "type": "function",
      "constant": true
    },
    {
      "inputs": [
        {
          "internalType": "uint256",
          "name": "tokenId",
          "type": "uint256"
        }
      ],
      "name": "getApproved",
      "outputs": [
        {
          "internalType": "address",
          "name": "",
          "type": "address"
        }
      ],
      "stateMutability": "view",
      "type": "function",
      "constant": true
    },
    {
      "inputs": [
        {
          "internalType": "address",
          "name": "owner",
          "type": "address"
        },
        {
          "internalType": "address",
          "name": "operator",
          "type": "address"
        }
      ],
      "name": "isApprovedForAll",
      "outputs": [
        {
          "internalType": "bool",
          "name": "",
          "type": "bool"
        }
      ],
      "stateMutability": "view",
      "type": "function",
      "constant": true
    },
    {
      "inputs": [],
      "name": "name",
      "outputs": [
        {
          "internalType": "string",
          "name": "",
          "type": "string"
        }
      ],
      "stateMutability": "view",
      "type": "function",
      "constant": true
    },
    {
      "inputs": [
        {
          "internalType": "uint256",
          "name": "tokenId",
          "type": "uint256"
        }
      ],
      "name": "ownerOf",
      "outputs": [
        {
          "internalType": "address",
          "name": "",
          "type": "address"
        }
      ],
      "stateMutability": "view",
      "type": "function",
      "constant": true
    },
    {
      "inputs": [
        {
          "internalType": "address",
          "name": "from",
          "type": "address"
        },
        {
          "internalType": "address",
          "name": "to",
          "type": "address"
        },
        {
          "internalType": "uint256",
          "name": "tokenId",
          "type": "uint256"
        }
      ],
      "name": "safeTransferFrom",
      "outputs": [],
      "stateMutability": "nonpayable",
      "type": "function"
    },
    {
      "inputs": [
        {
          "internalType": "address",
          "name": "from",
          "type": "address"
        },
        {
          "internalType": "address",
          "name": "to",
          "type": "address"
        },
        {
          "internalType": "uint256",
          "name": "tokenId",
          "type": "uint256"
        },
        {
          "internalType": "bytes",
          "name": "data",
          "type": "bytes"
        }
      ],
      "name": "safeTransferFrom",
      "outputs": [],
      "stateMutability": "nonpayable",
      "type": "function"
    },
    {
      "inputs": [
        {
          "internalType": "address",
          "name": "operator",
          "type": "address"
        },
        {
          "internalType": "bool",
          "name": "approved",
          "type": "bool"
        }
      ],
      "name": "setApprovalForAll",
      "outputs": [],
      "stateMutability": "nonpayable",
      "type": "function"
    },
    {
      "inputs": [
        {
          "internalType": "uint256",
          "name": "tokenId",
          "type": "uint256"
        },
        {
          "internalType": "address",
          "name": "user",
          "type": "address"
        },
        {
          "internalType": "uint64",
          "name": "expires",
          "type": "uint64"
        }
      ],
      "name": "setUser",
      "outputs": [],
      "stateMutability": "nonpayable",
      "type": "function"
    },
    {
      "inputs": [
        {
          "internalType": "bytes4",
          "name": "interfaceId",
          "type": "bytes4"
        }
      ],
      "name": "supportsInterface",
      "outputs": [
        {
          "internalType": "bool",
          "name": "",
          "type": "bool"
        }
      ],
      "stateMutability": "view",
      "type": "function",
      "constant": true
    },
    {
      "inputs": [],
      "name": "symbol",
      "outputs": [
        {
          "internalType": "string",
          "name": "",
          "type": "string"
        }
      ],
      "stateMutability": "view",
      "type": "function",
      "constant": true
    },
    {
      "inputs": [
        {
          "internalType": "uint256",
          "name": "tokenId",
          "type": "uint256"
        }
      ],
      "name": "tokenURI",
      "outputs": [
        {
          "internalType": "string",
          "name": "",
          "type": "string"
        }
      ],
      "stateMutability": "view",
      "type": "function",
      "constant": true
    },
    {
      "inputs": [
        {
          "internalType": "address",
          "name": "from",
          "type": "address"
        },
        {
          "internalType": "address",
          "name": "to",
          "type": "address"
        },
        {
          "internalType": "uint256",
          "name": "tokenId",
          "type": "uint256"
        }
      ],
      "name": "transferFrom",
      "outputs": [],
      "stateMutability": "nonpayable",
      "type": "function"
    },
    {
      "inputs": [
        {
          "internalType": "uint256",
          "name": "tokenId",
          "type": "uint256"
        }
      ],
      "name": "userExpires",
      "outputs": [
        {
          "internalType": "uint256",
          "name": "",
          "type": "uint256"
        }
      ],
      "stateMutability": "view",
      "type": "function",
      "constant": true
    },
    {
      "inputs": [
        {
          "internalType": "uint256",
          "name": "tokenId",
          "type": "uint256"
        }
      ],
      "name": "userOf",
      "outputs": [
        {
          "internalType": "address",
          "name": "",
          "type": "address"
        }
      ],
      "stateMutability": "view",
      "type": "function",
      "constant": true
    },
    {
      "inputs": [
        {
          "internalType": "uint256",
          "name": "pricePerNight",
          "type": "uint256"
        }
      ],
      "name": "createNFT",
      "outputs": [],
      "stateMutability": "nonpayable",
      "type": "function"
    },
    {
      "inputs": [
        {
          "internalType": "uint256",
          "name": "tokenId",
          "type": "uint256"
        }
      ],
      "name": "getRental",
      "outputs": [
        {
          "internalType": "address",
          "name": "",
          "type": "address"
        },
        {
          "internalType": "uint256",
          "name": "",
          "type": "uint256"
        },
        {
          "internalType": "uint256",
          "name": "",
          "type": "uint256"
        },
        {
          "internalType": "uint256",
          "name": "",
          "type": "uint256"
        }
      ],
      "stateMutability": "view",
      "type": "function",
      "constant": true
    },
    {
      "inputs": [],
      "name": "getPricePerNightForRentals",
      "outputs": [
        {
          "internalType": "string[]",
          "name": "",
          "type": "string[]"
        }
      ],
      "stateMutability": "view",
      "type": "function",
      "constant": true
    },
    {
      "inputs": [
        {
          "internalType": "uint256",
          "name": "tokenId",
          "type": "uint256"
        }
      ],
      "name": "getRentalAvailability",
      "outputs": [
        {
          "internalType": "bool",
          "name": "",
          "type": "bool"
        }
      ],
      "stateMutability": "view",
      "type": "function",
      "constant": true
    },
    {
      "inputs": [
        {
          "internalType": "address",
          "name": "user",
          "type": "address"
        }
      ],
      "name": "getLogementTokenId",
      "outputs": [
        {
          "internalType": "uint256",
          "name": "",
          "type": "uint256"
        }
      ],
      "stateMutability": "view",
      "type": "function",
      "constant": true
    },
    {
      "inputs": [],
      "name": "searchRentals",
      "outputs": [
        {
          "internalType": "uint256[]",
          "name": "",
          "type": "uint256[]"
        }
      ],
      "stateMutability": "view",
      "type": "function",
      "constant": true
    },
    {
      "inputs": [
        {
          "internalType": "uint256",
          "name": "tokenId",
          "type": "uint256"
        },
        {
          "internalType": "uint256",
          "name": "endDate",
          "type": "uint256"
        }
      ],
      "name": "rent",
      "outputs": [],
      "stateMutability": "payable",
      "type": "function",
      "payable": true
    }
  ],
  "bytecode": "0x60806040523480156200001157600080fd5b506040518060400160405280600781526020017f436865636b496e000000000000000000000000000000000000000000000000008152506040518060400160405280600281526020017f43490000000000000000000000000000000000000000000000000000000000008152508181816000908162000091919062000328565b508060019081620000a3919062000328565b50505050506200040f565b600081519050919050565b7f4e487b7100000000000000000000000000000000000000000000000000000000600052604160045260246000fd5b7f4e487b7100000000000000000000000000000000000000000000000000000000600052602260045260246000fd5b600060028204905060018216806200013057607f821691505b602082108103620001465762000145620000e8565b5b50919050565b60008190508160005260206000209050919050565b60006020601f8301049050919050565b600082821b905092915050565b600060088302620001b07fffffffffffffffffffffffffffffffffffffffffffffffffffffffffffffffff8262000171565b620001bc868362000171565b95508019841693508086168417925050509392505050565b6000819050919050565b6000819050919050565b60006200020962000203620001fd84620001d4565b620001de565b620001d4565b9050919050565b6000819050919050565b6200022583620001e8565b6200023d620002348262000210565b8484546200017e565b825550505050565b600090565b6200025462000245565b620002618184846200021a565b505050565b5b8181101562000289576200027d6000826200024a565b60018101905062000267565b5050565b601f821115620002d857620002a2816200014c565b620002ad8462000161565b81016020851015620002bd578190505b620002d5620002cc8562000161565b83018262000266565b50505b505050565b600082821c905092915050565b6000620002fd60001984600802620002dd565b1980831691505092915050565b6000620003188383620002ea565b9150826002028217905092915050565b6200033382620000ae565b67ffffffffffffffff8111156200034f576200034e620000b9565b5b6200035b825462000117565b620003688282856200028d565b600060209050601f831160018114620003a057600084156200038b578287015190505b6200039785826200030a565b86555062000407565b601f198416620003b0866200014c565b60005b82811015620003da57848901518255600182019150602085019450602081019050620003b3565b86831015620003fa5784890151620003f6601f891682620002ea565b8355505b6001600288020188555050505b505050505050565b613c9f806200041f6000396000f3fe6080604052600436106101405760003560e01c80638fc88c48116100b6578063c2f1f14a1161006f578063c2f1f14a14610486578063c87b56dd146104c3578063cee2c7da14610500578063e030565e1461053d578063e985e9c514610566578063faa11c62146105a357610140565b80638fc88c481461036657806395d89b41146103a357806396492155146103ce5780639c5a9146146103f7578063a22cb46514610434578063b88d4fde1461045d57610140565b806342842e0e1161010857806342842e0e1461023c578063458a11f2146102655780636352211e14610290578063652bd29e146102cd57806370a082311461030d578063783a112b1461034a57610140565b806301ffc9a71461014557806306fdde0314610182578063081812fc146101ad578063095ea7b3146101ea57806323b872dd14610213575b600080fd5b34801561015157600080fd5b5061016c6004803603810190610167919061278a565b6105ce565b60405161017991906127d2565b60405180910390f35b34801561018e57600080fd5b50610197610648565b6040516101a4919061287d565b60405180910390f35b3480156101b957600080fd5b506101d460048036038101906101cf91906128d5565b6106da565b6040516101e19190612943565b60405180910390f35b3480156101f657600080fd5b50610211600480360381019061020c919061298a565b610720565b005b34801561021f57600080fd5b5061023a600480360381019061023591906129ca565b610837565b005b34801561024857600080fd5b50610263600480360381019061025e91906129ca565b610897565b005b34801561027157600080fd5b5061027a6108b7565b6040516102879190612b29565b60405180910390f35b34801561029c57600080fd5b506102b760048036038101906102b291906128d5565b61099c565b6040516102c49190612943565b60405180910390f35b3480156102d957600080fd5b506102f460048036038101906102ef91906128d5565b610a22565b6040516103049493929190612b5a565b60405180910390f35b34801561031957600080fd5b50610334600480360381019061032f9190612b9f565b610aef565b6040516103419190612bcc565b60405180910390f35b610364600480360381019061035f9190612be7565b610ba6565b005b34801561037257600080fd5b5061038d600480360381019061038891906128d5565b610efc565b60405161039a9190612bcc565b60405180910390f35b3480156103af57600080fd5b506103b8610f3a565b6040516103c5919061287d565b60405180910390f35b3480156103da57600080fd5b506103f560048036038101906103f091906128d5565b610fcc565b005b34801561040357600080fd5b5061041e600480360381019061041991906128d5565b611198565b60405161042b91906127d2565b60405180910390f35b34801561044057600080fd5b5061045b60048036038101906104569190612c53565b6111c5565b005b34801561046957600080fd5b50610484600480360381019061047f9190612dc8565b6111db565b005b34801561049257600080fd5b506104ad60048036038101906104a891906128d5565b61123d565b6040516104ba9190612943565b60405180910390f35b3480156104cf57600080fd5b506104ea60048036038101906104e591906128d5565b6112c2565b6040516104f7919061287d565b60405180910390f35b34801561050c57600080fd5b5061052760048036038101906105229190612b9f565b61132a565b6040516105349190612bcc565b60405180910390f35b34801561054957600080fd5b50610564600480360381019061055f9190612e8b565b611373565b005b34801561057257600080fd5b5061058d60048036038101906105889190612ede565b611496565b60405161059a91906127d2565b60405180910390f35b3480156105af57600080fd5b506105b861152a565b6040516105c59190612fdc565b60405180910390f35b60007fad092b5c000000000000000000000000000000000000000000000000000000007bffffffffffffffffffffffffffffffffffffffffffffffffffffffff1916827bffffffffffffffffffffffffffffffffffffffffffffffffffffffff19161480610641575061064082611698565b5b9050919050565b6060600080546106579061302d565b80601f01602080910402602001604051908101604052809291908181526020018280546106839061302d565b80156106d05780601f106106a5576101008083540402835291602001916106d0565b820191906000526020600020905b8154815290600101906020018083116106b357829003601f168201915b5050505050905090565b60006106e58261177a565b6004600083815260200190815260200160002060009054906101000a900473ffffffffffffffffffffffffffffffffffffffff169050919050565b600061072b8261099c565b90508073ffffffffffffffffffffffffffffffffffffffff168373ffffffffffffffffffffffffffffffffffffffff160361079b576040517f08c379a0000000000000000000000000000000000000000000000000000000008152600401610792906130d0565b60405180910390fd5b8073ffffffffffffffffffffffffffffffffffffffff166107ba6117c5565b73ffffffffffffffffffffffffffffffffffffffff1614806107e957506107e8816107e36117c5565b611496565b5b610828576040517f08c379a000000000000000000000000000000000000000000000000000000000815260040161081f90613162565b60405180910390fd5b61083283836117cd565b505050565b6108486108426117c5565b82611886565b610887576040517f08c379a000000000000000000000000000000000000000000000000000000000815260040161087e906131f4565b60405180910390fd5b61089283838361191b565b505050565b6108b2838383604051806020016040528060008152506111db565b505050565b60606000600b8054905067ffffffffffffffff8111156108da576108d9612c9d565b5b60405190808252806020026020018201604052801561090d57816020015b60608152602001906001900390816108f85790505b50905060005b600b80549050811015610994576000600b828154811061093657610935613214565b5b906000526020600020015490506109626008600083815260200190815260200160002060020154611c14565b83838151811061097557610974613214565b5b602002602001018190525050808061098c90613272565b915050610913565b508091505090565b6000806109a883611ce2565b9050600073ffffffffffffffffffffffffffffffffffffffff168173ffffffffffffffffffffffffffffffffffffffff1603610a19576040517f08c379a0000000000000000000000000000000000000000000000000000000008152600401610a1090613306565b60405180910390fd5b80915050919050565b6000806000806000600860008781526020019081526020016000206040518060800160405290816000820160009054906101000a900473ffffffffffffffffffffffffffffffffffffffff1673ffffffffffffffffffffffffffffffffffffffff1673ffffffffffffffffffffffffffffffffffffffff16815260200160018201548152602001600282015481526020016003820160009054906101000a900460ff1615151515815250509050806000015181602001518260400151889450945094509450509193509193565b60008073ffffffffffffffffffffffffffffffffffffffff168273ffffffffffffffffffffffffffffffffffffffff1603610b5f576040517f08c379a0000000000000000000000000000000000000000000000000000000008152600401610b5690613398565b60405180910390fd5b600360008373ffffffffffffffffffffffffffffffffffffffff1673ffffffffffffffffffffffffffffffffffffffff168152602001908152602001600020549050919050565b6008600083815260200190815260200160002060030160009054906101000a900460ff16610c09576040517f08c379a0000000000000000000000000000000000000000000000000000000008152600401610c009061342a565b60405180910390fd5b428111610c4b576040517f08c379a0000000000000000000000000000000000000000000000000000000008152600401610c4290613496565b60405180910390fd5b60004282610c5991906134b6565b905060006201518082610c6c9190613519565b90506000816008600087815260200190815260200160002060020154610c92919061354a565b9050600042600860008881526020019081526020016000206001015411610cba576000610ceb565b62015180426008600089815260200190815260200160002060010154610ce091906134b6565b610cea9190613519565b5b90506000816008600089815260200190815260200160002060020154610d11919061354a565b90508083610d1f91906134b6565b341015610d61576040517f08c379a0000000000000000000000000000000000000000000000000000000008152600401610d58906135d8565b60405180910390fd5b60006008600089815260200190815260200160002060000160009054906101000a900473ffffffffffffffffffffffffffffffffffffffff16905060008173ffffffffffffffffffffffffffffffffffffffff1634604051610dc290613629565b60006040518083038185875af1925050503d8060008114610dff576040519150601f19603f3d011682016040523d82523d6000602084013e610e04565b606091505b5050905080610e48576040517f08c379a0000000000000000000000000000000000000000000000000000000008152600401610e3f9061368a565b60405180910390fd5b87600860008b8152602001908152602001600020600101819055506000600860008b815260200190815260200160002060030160006101000a81548160ff021916908315150217905550610e9b89611d1f565b610eb682338b60405180602001604052806000815250611dea565b7fcac6b604a59915592b5c4fe5c4db6579050a589732b5f691320392f9c05794a789338a604051610ee9939291906136aa565b60405180910390a1505050505050505050565b60006006600083815260200190815260200160002060000160149054906101000a900467ffffffffffffffff1667ffffffffffffffff169050919050565b606060018054610f499061302d565b80601f0160208091040260200160405190810160405280929190818152602001828054610f759061302d565b8015610fc25780601f10610f9757610100808354040283529160200191610fc2565b820191906000526020600020905b815481529060010190602001808311610fa557829003601f168201915b5050505050905090565b6000339050610fdb6007611e46565b6000610fe76007611e5c565b9050610ff38282611e6a565b60405180608001604052808373ffffffffffffffffffffffffffffffffffffffff16815260200160008152602001848152602001600115158152506008600083815260200190815260200160002060008201518160000160006101000a81548173ffffffffffffffffffffffffffffffffffffffff021916908373ffffffffffffffffffffffffffffffffffffffff160217905550602082015181600101556040820151816002015560608201518160030160006101000a81548160ff0219169083151502179055509050506001600a600083815260200190815260200160002060006101000a81548160ff02191690831515021790555080600960008473ffffffffffffffffffffffffffffffffffffffff1673ffffffffffffffffffffffffffffffffffffffff16815260200190815260200160002081905550600b8190806001815401808255809150506001900390600052602060002001600090919091909150557f2d03118aa776f7008445f6ca8490a6782ede2db364d741513555ba656ab1879f81838560405161118b939291906136aa565b60405180910390a1505050565b60006008600083815260200190815260200160002060030160009054906101000a900460ff169050919050565b6111d76111d06117c5565b8383612087565b5050565b6111ec6111e66117c5565b83611886565b61122b576040517f08c379a0000000000000000000000000000000000000000000000000000000008152600401611222906131f4565b60405180910390fd5b61123784848484611dea565b50505050565b6000426006600084815260200190815260200160002060000160149054906101000a900467ffffffffffffffff1667ffffffffffffffff16106112b8576006600083815260200190815260200160002060000160009054906101000a900473ffffffffffffffffffffffffffffffffffffffff1690506112bd565b600090505b919050565b60606112cd8261177a565b60006112d76121f3565b905060008151116112f75760405180602001604052806000815250611322565b8061130184611c14565b60405160200161131292919061371d565b6040516020818303038152906040525b915050919050565b6000600960008373ffffffffffffffffffffffffffffffffffffffff1673ffffffffffffffffffffffffffffffffffffffff168152602001908152602001600020549050919050565b61137d3384611886565b6113bc576040517f08c379a00000000000000000000000000000000000000000000000000000000081526004016113b3906137b3565b60405180910390fd5b6000600660008581526020019081526020016000209050828160000160006101000a81548173ffffffffffffffffffffffffffffffffffffffff021916908373ffffffffffffffffffffffffffffffffffffffff160217905550818160000160146101000a81548167ffffffffffffffff021916908367ffffffffffffffff1602179055508273ffffffffffffffffffffffffffffffffffffffff16847f4e06b4e7000e659094299b3533b47b6aa8ad048e95e872d23d1f4ee55af89cfe8460405161148891906137e2565b60405180910390a350505050565b6000600560008473ffffffffffffffffffffffffffffffffffffffff1673ffffffffffffffffffffffffffffffffffffffff16815260200190815260200160002060008373ffffffffffffffffffffffffffffffffffffffff1673ffffffffffffffffffffffffffffffffffffffff16815260200190815260200160002060009054906101000a900460ff16905092915050565b606060006115386007611e5c565b67ffffffffffffffff81111561155157611550612c9d565b5b60405190808252806020026020018201604052801561157f5781602001602082028036833780820191505090505b509050600061158e6007611e5c565b67ffffffffffffffff8111156115a7576115a6612c9d565b5b6040519080825280602002602001820160405280156115d55781602001602082028036833780820191505090505b509050600080600190505b6115ea6007611e5c565b811161168e57600a600082815260200190815260200160002060009054906101000a900460ff161561167b578084838151811061162a57611629613214565b5b60200260200101818152505060086000828152602001908152602001600020600201548383815181106116605761165f613214565b5b602002602001018181525050818061167790613272565b9250505b808061168690613272565b9150506115e0565b5082935050505090565b60007f80ac58cd000000000000000000000000000000000000000000000000000000007bffffffffffffffffffffffffffffffffffffffffffffffffffffffff1916827bffffffffffffffffffffffffffffffffffffffffffffffffffffffff1916148061176357507f5b5e139f000000000000000000000000000000000000000000000000000000007bffffffffffffffffffffffffffffffffffffffffffffffffffffffff1916827bffffffffffffffffffffffffffffffffffffffffffffffffffffffff1916145b8061177357506117728261220a565b5b9050919050565b61178381612274565b6117c2576040517f08c379a00000000000000000000000000000000000000000000000000000000081526004016117b990613306565b60405180910390fd5b50565b600033905090565b816004600083815260200190815260200160002060006101000a81548173ffffffffffffffffffffffffffffffffffffffff021916908373ffffffffffffffffffffffffffffffffffffffff160217905550808273ffffffffffffffffffffffffffffffffffffffff166118408361099c565b73ffffffffffffffffffffffffffffffffffffffff167f8c5be1e5ebec7d5bd14f71427d1e84f3dd0314c0f7b2291e5b200ac8c7c3b92560405160405180910390a45050565b6000806118928361099c565b90508073ffffffffffffffffffffffffffffffffffffffff168473ffffffffffffffffffffffffffffffffffffffff1614806118d457506118d38185611496565b5b8061191257508373ffffffffffffffffffffffffffffffffffffffff166118fa846106da565b73ffffffffffffffffffffffffffffffffffffffff16145b91505092915050565b8273ffffffffffffffffffffffffffffffffffffffff1661193b8261099c565b73ffffffffffffffffffffffffffffffffffffffff1614611991576040517f08c379a00000000000000000000000000000000000000000000000000000000081526004016119889061386f565b60405180910390fd5b600073ffffffffffffffffffffffffffffffffffffffff168273ffffffffffffffffffffffffffffffffffffffff1603611a00576040517f08c379a00000000000000000000000000000000000000000000000000000000081526004016119f790613901565b60405180910390fd5b611a0d83838360016122b5565b8273ffffffffffffffffffffffffffffffffffffffff16611a2d8261099c565b73ffffffffffffffffffffffffffffffffffffffff1614611a83576040517f08c379a0000000000000000000000000000000000000000000000000000000008152600401611a7a9061386f565b60405180910390fd5b6004600082815260200190815260200160002060006101000a81549073ffffffffffffffffffffffffffffffffffffffff02191690556001600360008573ffffffffffffffffffffffffffffffffffffffff1673ffffffffffffffffffffffffffffffffffffffff168152602001908152602001600020600082825403925050819055506001600360008473ffffffffffffffffffffffffffffffffffffffff1673ffffffffffffffffffffffffffffffffffffffff16815260200190815260200160002060008282540192505081905550816002600083815260200190815260200160002060006101000a81548173ffffffffffffffffffffffffffffffffffffffff021916908373ffffffffffffffffffffffffffffffffffffffff160217905550808273ffffffffffffffffffffffffffffffffffffffff168473ffffffffffffffffffffffffffffffffffffffff167fddf252ad1be2c89b69c2b068fc378daa952ba7f163c4a11628f55a4df523b3ef60405160405180910390a4611c0f8383836001612415565b505050565b606060006001611c238461241b565b01905060008167ffffffffffffffff811115611c4257611c41612c9d565b5b6040519080825280601f01601f191660200182016040528015611c745781602001600182028036833780820191505090505b509050600082602001820190505b600115611cd7578080600190039150507f3031323334353637383961626364656600000000000000000000000000000000600a86061a8153600a8581611ccb57611cca6134ea565b5b04945060008503611c82575b819350505050919050565b60006002600083815260200190815260200160002060009054906101000a900473ffffffffffffffffffffffffffffffffffffffff169050919050565b60005b600b80549050811015611de65781600b8281548110611d4457611d43613214565b5b906000526020600020015403611dd357600b6001600b80549050611d6891906134b6565b81548110611d7957611d78613214565b5b9060005260206000200154600b8281548110611d9857611d97613214565b5b9060005260206000200181905550600b805480611db857611db7613921565b5b60019003818190600052602060002001600090559055611de6565b8080611dde90613272565b915050611d22565b5050565b611df584848461191b565b611e018484848461256e565b611e40576040517f08c379a0000000000000000000000000000000000000000000000000000000008152600401611e37906139c2565b60405180910390fd5b50505050565b6001816000016000828254019250508190555050565b600081600001549050919050565b600073ffffffffffffffffffffffffffffffffffffffff168273ffffffffffffffffffffffffffffffffffffffff1603611ed9576040517f08c379a0000000000000000000000000000000000000000000000000000000008152600401611ed090613a2e565b60405180910390fd5b611ee281612274565b15611f22576040517f08c379a0000000000000000000000000000000000000000000000000000000008152600401611f1990613a9a565b60405180910390fd5b611f306000838360016122b5565b611f3981612274565b15611f79576040517f08c379a0000000000000000000000000000000000000000000000000000000008152600401611f7090613a9a565b60405180910390fd5b6001600360008473ffffffffffffffffffffffffffffffffffffffff1673ffffffffffffffffffffffffffffffffffffffff16815260200190815260200160002060008282540192505081905550816002600083815260200190815260200160002060006101000a81548173ffffffffffffffffffffffffffffffffffffffff021916908373ffffffffffffffffffffffffffffffffffffffff160217905550808273ffffffffffffffffffffffffffffffffffffffff16600073ffffffffffffffffffffffffffffffffffffffff167fddf252ad1be2c89b69c2b068fc378daa952ba7f163c4a11628f55a4df523b3ef60405160405180910390a4612083600083836001612415565b5050565b8173ffffffffffffffffffffffffffffffffffffffff168373ffffffffffffffffffffffffffffffffffffffff16036120f5576040517f08c379a00000000000000000000000000000000000000000000000000000000081526004016120ec90613b06565b60405180910390fd5b80600560008573ffffffffffffffffffffffffffffffffffffffff1673ffffffffffffffffffffffffffffffffffffffff16815260200190815260200160002060008473ffffffffffffffffffffffffffffffffffffffff1673ffffffffffffffffffffffffffffffffffffffff16815260200190815260200160002060006101000a81548160ff0219169083151502179055508173ffffffffffffffffffffffffffffffffffffffff168373ffffffffffffffffffffffffffffffffffffffff167f17307eab39ab6107e8899845ad3d59bd9653f200f220920489ca2b5937696c31836040516121e691906127d2565b60405180910390a3505050565b606060405180602001604052806000815250905090565b60007f01ffc9a7000000000000000000000000000000000000000000000000000000007bffffffffffffffffffffffffffffffffffffffffffffffffffffffff1916827bffffffffffffffffffffffffffffffffffffffffffffffffffffffff1916149050919050565b60008073ffffffffffffffffffffffffffffffffffffffff1661229683611ce2565b73ffffffffffffffffffffffffffffffffffffffff1614159050919050565b6122c1848484846126f5565b8273ffffffffffffffffffffffffffffffffffffffff168473ffffffffffffffffffffffffffffffffffffffff16141580156123605750600073ffffffffffffffffffffffffffffffffffffffff166006600084815260200190815260200160002060000160009054906101000a900473ffffffffffffffffffffffffffffffffffffffff1673ffffffffffffffffffffffffffffffffffffffff1614155b1561240f5760066000838152602001908152602001600020600080820160006101000a81549073ffffffffffffffffffffffffffffffffffffffff02191690556000820160146101000a81549067ffffffffffffffff02191690555050600073ffffffffffffffffffffffffffffffffffffffff16827f4e06b4e7000e659094299b3533b47b6aa8ad048e95e872d23d1f4ee55af89cfe60006040516124069190613b6b565b60405180910390a35b50505050565b50505050565b600080600090507a184f03e93ff9f4daa797ed6e38ed64bf6a1f0100000000000000008310612479577a184f03e93ff9f4daa797ed6e38ed64bf6a1f010000000000000000838161246f5761246e6134ea565b5b0492506040810190505b6d04ee2d6d415b85acef810000000083106124b6576d04ee2d6d415b85acef810000000083816124ac576124ab6134ea565b5b0492506020810190505b662386f26fc1000083106124e557662386f26fc1000083816124db576124da6134ea565b5b0492506010810190505b6305f5e100831061250e576305f5e1008381612504576125036134ea565b5b0492506008810190505b6127108310612533576127108381612529576125286134ea565b5b0492506004810190505b60648310612556576064838161254c5761254b6134ea565b5b0492506002810190505b600a8310612565576001810190505b80915050919050565b600061258f8473ffffffffffffffffffffffffffffffffffffffff166126fb565b156126e8578373ffffffffffffffffffffffffffffffffffffffff1663150b7a026125b86117c5565b8786866040518563ffffffff1660e01b81526004016125da9493929190613bdb565b6020604051808303816000875af192505050801561261657506040513d601f19601f820116820180604052508101906126139190613c3c565b60015b612698573d8060008114612646576040519150601f19603f3d011682016040523d82523d6000602084013e61264b565b606091505b506000815103612690576040517f08c379a0000000000000000000000000000000000000000000000000000000008152600401612687906139c2565b60405180910390fd5b805181602001fd5b63150b7a0260e01b7bffffffffffffffffffffffffffffffffffffffffffffffffffffffff1916817bffffffffffffffffffffffffffffffffffffffffffffffffffffffff1916149150506126ed565b600190505b949350505050565b50505050565b6000808273ffffffffffffffffffffffffffffffffffffffff163b119050919050565b6000604051905090565b600080fd5b600080fd5b60007fffffffff0000000000000000000000000000000000000000000000000000000082169050919050565b61276781612732565b811461277257600080fd5b50565b6000813590506127848161275e565b92915050565b6000602082840312156127a05761279f612728565b5b60006127ae84828501612775565b91505092915050565b60008115159050919050565b6127cc816127b7565b82525050565b60006020820190506127e760008301846127c3565b92915050565b600081519050919050565b600082825260208201905092915050565b60005b8381101561282757808201518184015260208101905061280c565b60008484015250505050565b6000601f19601f8301169050919050565b600061284f826127ed565b61285981856127f8565b9350612869818560208601612809565b61287281612833565b840191505092915050565b600060208201905081810360008301526128978184612844565b905092915050565b6000819050919050565b6128b28161289f565b81146128bd57600080fd5b50565b6000813590506128cf816128a9565b92915050565b6000602082840312156128eb576128ea612728565b5b60006128f9848285016128c0565b91505092915050565b600073ffffffffffffffffffffffffffffffffffffffff82169050919050565b600061292d82612902565b9050919050565b61293d81612922565b82525050565b60006020820190506129586000830184612934565b92915050565b61296781612922565b811461297257600080fd5b50565b6000813590506129848161295e565b92915050565b600080604083850312156129a1576129a0612728565b5b60006129af85828601612975565b92505060206129c0858286016128c0565b9150509250929050565b6000806000606084860312156129e3576129e2612728565b5b60006129f186828701612975565b9350506020612a0286828701612975565b9250506040612a13868287016128c0565b9150509250925092565b600081519050919050565b600082825260208201905092915050565b6000819050602082019050919050565b600082825260208201905092915050565b6000612a65826127ed565b612a6f8185612a49565b9350612a7f818560208601612809565b612a8881612833565b840191505092915050565b6000612a9f8383612a5a565b905092915050565b6000602082019050919050565b6000612abf82612a1d565b612ac98185612a28565b935083602082028501612adb85612a39565b8060005b85811015612b175784840389528151612af88582612a93565b9450612b0383612aa7565b925060208a01995050600181019050612adf565b50829750879550505050505092915050565b60006020820190508181036000830152612b438184612ab4565b905092915050565b612b548161289f565b82525050565b6000608082019050612b6f6000830187612934565b612b7c6020830186612b4b565b612b896040830185612b4b565b612b966060830184612b4b565b95945050505050565b600060208284031215612bb557612bb4612728565b5b6000612bc384828501612975565b91505092915050565b6000602082019050612be16000830184612b4b565b92915050565b60008060408385031215612bfe57612bfd612728565b5b6000612c0c858286016128c0565b9250506020612c1d858286016128c0565b9150509250929050565b612c30816127b7565b8114612c3b57600080fd5b50565b600081359050612c4d81612c27565b92915050565b60008060408385031215612c6a57612c69612728565b5b6000612c7885828601612975565b9250506020612c8985828601612c3e565b9150509250929050565b600080fd5b600080fd5b7f4e487b7100000000000000000000000000000000000000000000000000000000600052604160045260246000fd5b612cd582612833565b810181811067ffffffffffffffff82111715612cf457612cf3612c9d565b5b80604052505050565b6000612d0761271e565b9050612d138282612ccc565b919050565b600067ffffffffffffffff821115612d3357612d32612c9d565b5b612d3c82612833565b9050602081019050919050565b82818337600083830152505050565b6000612d6b612d6684612d18565b612cfd565b905082815260208101848484011115612d8757612d86612c98565b5b612d92848285612d49565b509392505050565b600082601f830112612daf57612dae612c93565b5b8135612dbf848260208601612d58565b91505092915050565b60008060008060808587031215612de257612de1612728565b5b6000612df087828801612975565b9450506020612e0187828801612975565b9350506040612e12878288016128c0565b925050606085013567ffffffffffffffff811115612e3357612e3261272d565b5b612e3f87828801612d9a565b91505092959194509250565b600067ffffffffffffffff82169050919050565b612e6881612e4b565b8114612e7357600080fd5b50565b600081359050612e8581612e5f565b92915050565b600080600060608486031215612ea457612ea3612728565b5b6000612eb2868287016128c0565b9350506020612ec386828701612975565b9250506040612ed486828701612e76565b9150509250925092565b60008060408385031215612ef557612ef4612728565b5b6000612f0385828601612975565b9250506020612f1485828601612975565b9150509250929050565b600081519050919050565b600082825260208201905092915050565b6000819050602082019050919050565b612f538161289f565b82525050565b6000612f658383612f4a565b60208301905092915050565b6000602082019050919050565b6000612f8982612f1e565b612f938185612f29565b9350612f9e83612f3a565b8060005b83811015612fcf578151612fb68882612f59565b9750612fc183612f71565b925050600181019050612fa2565b5085935050505092915050565b60006020820190508181036000830152612ff68184612f7e565b905092915050565b7f4e487b7100000000000000000000000000000000000000000000000000000000600052602260045260246000fd5b6000600282049050600182168061304557607f821691505b60208210810361305857613057612ffe565b5b50919050565b7f4552433732313a20617070726f76616c20746f2063757272656e74206f776e6560008201527f7200000000000000000000000000000000000000000000000000000000000000602082015250565b60006130ba6021836127f8565b91506130c58261305e565b604082019050919050565b600060208201905081810360008301526130e9816130ad565b9050919050565b7f4552433732313a20617070726f76652063616c6c6572206973206e6f7420746f60008201527f6b656e206f776e6572206f7220617070726f76656420666f7220616c6c000000602082015250565b600061314c603d836127f8565b9150613157826130f0565b604082019050919050565b6000602082019050818103600083015261317b8161313f565b9050919050565b7f4552433732313a2063616c6c6572206973206e6f7420746f6b656e206f776e6560008201527f72206f7220617070726f76656400000000000000000000000000000000000000602082015250565b60006131de602d836127f8565b91506131e982613182565b604082019050919050565b6000602082019050818103600083015261320d816131d1565b9050919050565b7f4e487b7100000000000000000000000000000000000000000000000000000000600052603260045260246000fd5b7f4e487b7100000000000000000000000000000000000000000000000000000000600052601160045260246000fd5b600061327d8261289f565b91507fffffffffffffffffffffffffffffffffffffffffffffffffffffffffffffffff82036132af576132ae613243565b5b600182019050919050565b7f4552433732313a20696e76616c696420746f6b656e2049440000000000000000600082015250565b60006132f06018836127f8565b91506132fb826132ba565b602082019050919050565b6000602082019050818103600083015261331f816132e3565b9050919050565b7f4552433732313a2061646472657373207a65726f206973206e6f74206120766160008201527f6c6964206f776e65720000000000000000000000000000000000000000000000602082015250565b60006133826029836127f8565b915061338d82613326565b604082019050919050565b600060208201905081810360008301526133b181613375565b9050919050565b7f546869732072656e74616c206973206e6f7420617661696c61626c6520666f7260008201527f2072656e74000000000000000000000000000000000000000000000000000000602082015250565b60006134146025836127f8565b915061341f826133b8565b604082019050919050565b6000602082019050818103600083015261344381613407565b9050919050565b7f496e76616c696420656e64206461746500000000000000000000000000000000600082015250565b60006134806010836127f8565b915061348b8261344a565b602082019050919050565b600060208201905081810360008301526134af81613473565b9050919050565b60006134c18261289f565b91506134cc8361289f565b92508282039050818111156134e4576134e3613243565b5b92915050565b7f4e487b7100000000000000000000000000000000000000000000000000000000600052601260045260246000fd5b60006135248261289f565b915061352f8361289f565b92508261353f5761353e6134ea565b5b828204905092915050565b60006135558261289f565b91506135608361289f565b925082820261356e8161289f565b9150828204841483151761358557613584613243565b5b5092915050565b7f496e73756666696369656e74207061796d656e74000000000000000000000000600082015250565b60006135c26014836127f8565b91506135cd8261358c565b602082019050919050565b600060208201905081810360008301526135f1816135b5565b9050919050565b600081905092915050565b50565b60006136136000836135f8565b915061361e82613603565b600082019050919050565b600061363482613606565b9150819050919050565b7f4661696c656420746f2073656e64207061796d656e7420746f206f776e657200600082015250565b6000613674601f836127f8565b915061367f8261363e565b602082019050919050565b600060208201905081810360008301526136a381613667565b9050919050565b60006060820190506136bf6000830186612b4b565b6136cc6020830185612934565b6136d96040830184612b4b565b949350505050565b600081905092915050565b60006136f7826127ed565b61370181856136e1565b9350613711818560208601612809565b80840191505092915050565b600061372982856136ec565b915061373582846136ec565b91508190509392505050565b7f4552433732313a207472616e736665722063616c6c6572206973206e6f74206f60008201527f776e6572206e6f7220617070726f766564000000000000000000000000000000602082015250565b600061379d6031836127f8565b91506137a882613741565b604082019050919050565b600060208201905081810360008301526137cc81613790565b9050919050565b6137dc81612e4b565b82525050565b60006020820190506137f760008301846137d3565b92915050565b7f4552433732313a207472616e736665722066726f6d20696e636f72726563742060008201527f6f776e6572000000000000000000000000000000000000000000000000000000602082015250565b60006138596025836127f8565b9150613864826137fd565b604082019050919050565b600060208201905081810360008301526138888161384c565b9050919050565b7f4552433732313a207472616e7366657220746f20746865207a65726f2061646460008201527f7265737300000000000000000000000000000000000000000000000000000000602082015250565b60006138eb6024836127f8565b91506138f68261388f565b604082019050919050565b6000602082019050818103600083015261391a816138de565b9050919050565b7f4e487b7100000000000000000000000000000000000000000000000000000000600052603160045260246000fd5b7f4552433732313a207472616e7366657220746f206e6f6e20455243373231526560008201527f63656976657220696d706c656d656e7465720000000000000000000000000000602082015250565b60006139ac6032836127f8565b91506139b782613950565b604082019050919050565b600060208201905081810360008301526139db8161399f565b9050919050565b7f4552433732313a206d696e7420746f20746865207a65726f2061646472657373600082015250565b6000613a186020836127f8565b9150613a23826139e2565b602082019050919050565b60006020820190508181036000830152613a4781613a0b565b9050919050565b7f4552433732313a20746f6b656e20616c7265616479206d696e74656400000000600082015250565b6000613a84601c836127f8565b9150613a8f82613a4e565b602082019050919050565b60006020820190508181036000830152613ab381613a77565b9050919050565b7f4552433732313a20617070726f766520746f2063616c6c657200000000000000600082015250565b6000613af06019836127f8565b9150613afb82613aba565b602082019050919050565b60006020820190508181036000830152613b1f81613ae3565b9050919050565b6000819050919050565b6000819050919050565b6000613b55613b50613b4b84613b26565b613b30565b612e4b565b9050919050565b613b6581613b3a565b82525050565b6000602082019050613b806000830184613b5c565b92915050565b600081519050919050565b600082825260208201905092915050565b6000613bad82613b86565b613bb78185613b91565b9350613bc7818560208601612809565b613bd081612833565b840191505092915050565b6000608082019050613bf06000830187612934565b613bfd6020830186612934565b613c0a6040830185612b4b565b8181036060830152613c1c8184613ba2565b905095945050505050565b600081519050613c368161275e565b92915050565b600060208284031215613c5257613c51612728565b5b6000613c6084828501613c27565b9150509291505056fea264697066735822122061b527fbcf014d9985a170040c20524a28d2595c4c8206ca739ad4c572d94fcd64736f6c63430008120033",
  "immutableReferences": {},
  "source": "// SPDX-License-Identifier: MIT\n\npragma solidity ^0.8.18;\n\nimport \"@openzeppelin/contracts/access/Ownable.sol\"; \nimport \"@openzeppelin/contracts/utils/Counters.sol\"; \nimport \"@openzeppelin/contracts/utils/Strings.sol\";\nimport \"@openzeppelin/contracts/token/ERC721/ERC721.sol\";\nimport \"@openzeppelin/contracts/token/ERC721/extensions/ERC721Enumerable.sol\"; \nimport \"@openzeppelin/contracts/utils/Counters.sol\"; \nimport \"./IERC4907.sol\"; \nimport \"./ERC4907.sol\";\n\n/**\n*@title Checkin.symbol\n*\n*@author Lucu Charly\n*\n*@dev Checkin.description Checkin is a DApp that allows these users to create NFTs associated with a home to rent it out.\n */\ncontract Checkin is ERC4907 {\n\n/**\n*\n */\n    using Counters for Counters.Counter;\n    Counters.Counter private _tokenIds; \n\n    struct Rental {\n        address proprietaire;\n        uint256 endDate;\n        uint256 pricePerNight;\n        bool isAvailable;\n    }\n\n    mapping(uint256 => Rental) private rentals;\n    mapping(address => uint256) private logementToNFT;\n    mapping(uint256 => bool) private rentalAvailability;\n    uint256[] isAvailable;\n\n    event TokenMinted(uint256 tokenId, address proprietaire, uint256 pricePerNight);\n    event Rent(uint256 tokenId, address renter, uint256 endDate);\n    event RentalRelisted(uint256 tokenId, uint256 pricePerNight);\n\n    constructor() ERC4907(\"CheckIn\", \"CI\") {}\n\n    /**\n     * @dev Create a new NFT associated with a rental home.\n     * @param pricePerNight The price per night to rent the home.\n     */\n    function createNFT(uint256 pricePerNight) external {\n        address proprietaire = msg.sender;\n        _tokenIds.increment();\n        uint256 newTokenId = _tokenIds.current();\n        _mint(proprietaire, newTokenId);\n\n        rentals[newTokenId] = Rental({\n            proprietaire: proprietaire,\n            endDate: 0,\n            pricePerNight: pricePerNight,\n            isAvailable: true\n        });\n\n        rentalAvailability[newTokenId] = true;\n        logementToNFT[proprietaire] = newTokenId;\n\n        isAvailable.push(newTokenId);\n\n        emit TokenMinted(newTokenId, proprietaire, pricePerNight);\n    }\n\n    /**\n     * @dev Get the details of a rental.\n     * @param tokenId The ID of the rental NFT.\n     * @return proprietaire The address of the owner of the rental home.\n     * @return endDate The end date of the current rental period.\n     * @return pricePerNight The price per night to rent the home.\n     * @return tokenId The ID of the rental NFT.\n     */\n    function getRental(uint256 tokenId) public view returns (address, uint256, uint256, uint256) {\n        Rental memory rental = rentals[tokenId];\n        return (rental.proprietaire, rental.endDate, rental.pricePerNight, tokenId);\n    }\n\n    /**\n     * @dev Get the prices per night for all available rentals.\n     * @return prices An array of strings representing the prices per night.\n     */\n    function getPricePerNightForRentals() public view returns (string[] memory) {\n        string[] memory prices = new string[](isAvailable.length);\n        for (uint256 i = 0; i < isAvailable.length; i++) {\n            uint256 rentalId = isAvailable[i];\n            prices[i] = Strings.toString(rentals[rentalId].pricePerNight);\n        }\n        return prices;\n    }\n\n    /**\n     * @dev Get the availability status of a rental.\n     * @param tokenId The ID of the rental NFT.\n     * @return true if the rental is available, false otherwise.\n     */\n    function getRentalAvailability(uint256 tokenId) public view returns (bool) {\n        return rentals[tokenId].isAvailable;\n    }\n\n    /**\n     * @dev Get the token ID of the rental associated with a user s home.\n     * @param user The address of the user.\n     * @return logementToNFT The token ID of the rental associated with the user s home.\n     */\n    function getLogementTokenId(address user) external view returns (uint256) {\n    return logementToNFT[user];\n    }\n\n    /**\n     * @dev Get the token ID of the rental associated with a user s home.\n     * @return availableRentals An array of token IDs representing the available rentals.\n     */\n    function searchRentals() public view returns (uint256[] memory) {\n\n        // Create an array to store the available rentals\n        uint256[] memory availableRentals = new uint256[](_tokenIds.current());\n\n        // Create an array to store the prices per night of the available rentals\n        uint256[] memory pricePerNight = new uint256[](_tokenIds.current());\n        uint256 count = 0;\n\n        // Parcour all rentals and add the available ones to the array\n        for (uint256 i = 1; i <= _tokenIds.current(); i++) {\n            if (rentalAvailability[i]) {\n                availableRentals[count] = i;\n                pricePerNight[count] = rentals[i].pricePerNight;\n                count++;\n            }\n        }\n\n        return availableRentals;\n    }\n\n    /**\n     * @dev Rent a home.\n     * @param tokenId The ID of the rental NFT.\n     * @param endDate The end date of the rental period.\n     */\n    function rent(uint256 tokenId, uint256 endDate) external payable {\n        require(rentals[tokenId].isAvailable, \"This rental is not available for rent\");\n        require(endDate > block.timestamp, \"Invalid end date\");\n\n        // calcul the total price\n        uint256 duration = endDate - block.timestamp;\n        uint256 totalNights = duration / 86400; // Nombre total de nuits\n        uint256 totalPrice = rentals[tokenId].pricePerNight * totalNights;\n\n        // Use modulo to calculate the amount due for the remaining nights\n        uint256 remainingNights = rentals[tokenId].endDate > block.timestamp ? (rentals[tokenId].endDate - block.timestamp) / 86400 : 0;\n        uint256 remainingPrice = rentals[tokenId].pricePerNight * remainingNights;\n\n        // Check that the sent amount is sufficient to cover the rented nights and the remaining nights\n        require(msg.value >= totalPrice - remainingPrice, \"Insufficient payment\");\n\n        // Transfer the received amount to the owner of the home\n        address proprietaire = rentals[tokenId].proprietaire;\n        (bool success, ) = proprietaire.call{value: msg.value}(\"\");\n        require(success, \"Failed to send payment to owner\");\n\n        // Update the contract state to indicate that the home is rented and unavailable\n        rentals[tokenId].endDate = endDate;\n        rentals[tokenId].isAvailable = false; \n        removeAvailability(tokenId); \n\n        // Transfer the NFT to the renter\n        _safeTransfer(proprietaire, msg.sender, tokenId, \"\");\n\n        emit Rent(tokenId, msg.sender, endDate);\n    }\n\n\n    /**\n     * @dev Remove a rental from the list of available rentals.\n     * @param tokenId The ID of the rental NFT.\n     */\n    function removeAvailability(uint256 tokenId) internal { \n        for (uint256 i = 0; i < isAvailable.length; i++) {\n            if (isAvailable[i] == tokenId) {\n                isAvailable[i] = isAvailable[isAvailable.length - 1];\n                isAvailable.pop();\n                break;\n            }\n        }\n    }\n}",
  "sourcePath": "/home/charlyprez/Checkin/truffle/contracts/Checkin.sol",
  "compiler": {
    "name": "solc",
    "version": "0.8.18+commit.87f61d96.Emscripten.clang"
  },
  "schemaVersion": "3.4.14",
  "updatedAt": "2023-07-24T00:46:22.972Z",
  "networkType": "ethereum",
  "devdoc": {
    "author": "Lucu Charly",
    "details": "Checkin.description Checkin is a DApp that allows these users to create NFTs associated with a home to rent it out.",
    "events": {
      "Approval(address,address,uint256)": {
        "details": "Emitted when `owner` enables `approved` to manage the `tokenId` token."
      },
      "ApprovalForAll(address,address,bool)": {
        "details": "Emitted when `owner` enables or disables (`approved`) `operator` to manage all of its assets."
      },
      "Transfer(address,address,uint256)": {
        "details": "Emitted when `tokenId` token is transferred from `from` to `to`."
      }
    },
    "kind": "dev",
    "methods": {
      "approve(address,uint256)": {
        "details": "See {IERC721-approve}."
      },
      "balanceOf(address)": {
        "details": "See {IERC721-balanceOf}."
      },
      "createNFT(uint256)": {
        "details": "Create a new NFT associated with a rental home.",
        "params": {
          "pricePerNight": "The price per night to rent the home."
        }
      },
      "getApproved(uint256)": {
        "details": "See {IERC721-getApproved}."
      },
      "getLogementTokenId(address)": {
        "details": "Get the token ID of the rental associated with a user s home.",
        "params": {
          "user": "The address of the user."
        },
        "returns": {
          "_0": "logementToNFT The token ID of the rental associated with the user s home."
        }
      },
      "getPricePerNightForRentals()": {
        "details": "Get the prices per night for all available rentals.",
        "returns": {
          "_0": "prices An array of strings representing the prices per night."
        }
      },
      "getRental(uint256)": {
        "details": "Get the details of a rental.",
        "params": {
          "tokenId": "The ID of the rental NFT."
        },
        "returns": {
          "_0": "proprietaire The address of the owner of the rental home.",
          "_1": "endDate The end date of the current rental period.",
          "_2": "pricePerNight The price per night to rent the home.",
          "_3": "tokenId The ID of the rental NFT."
        }
      },
      "getRentalAvailability(uint256)": {
        "details": "Get the availability status of a rental.",
        "params": {
          "tokenId": "The ID of the rental NFT."
        },
        "returns": {
          "_0": "true if the rental is available, false otherwise."
        }
      },
      "isApprovedForAll(address,address)": {
        "details": "See {IERC721-isApprovedForAll}."
      },
      "name()": {
        "details": "See {IERC721Metadata-name}."
      },
      "ownerOf(uint256)": {
        "details": "See {IERC721-ownerOf}."
      },
      "rent(uint256,uint256)": {
        "details": "Rent a home.",
        "params": {
          "endDate": "The end date of the rental period.",
          "tokenId": "The ID of the rental NFT."
        }
      },
      "safeTransferFrom(address,address,uint256)": {
        "details": "See {IERC721-safeTransferFrom}."
      },
      "safeTransferFrom(address,address,uint256,bytes)": {
        "details": "See {IERC721-safeTransferFrom}."
      },
      "searchRentals()": {
        "details": "Get the token ID of the rental associated with a user s home.",
        "returns": {
          "_0": "availableRentals An array of token IDs representing the available rentals."
        }
      },
      "setApprovalForAll(address,bool)": {
        "details": "See {IERC721-setApprovalForAll}."
      },
      "setUser(uint256,address,uint64)": {
        "details": "The zero address indicates there is no user Throws if `tokenId` is not valid NFT",
        "params": {
          "expires": "UNIX timestamp, The new user could use the NFT before expires",
          "user": "The new user of the NFT"
        }
      },
      "supportsInterface(bytes4)": {
        "details": "See {IERC165-supportsInterface}."
      },
      "symbol()": {
        "details": "See {IERC721Metadata-symbol}."
      },
      "tokenURI(uint256)": {
        "details": "See {IERC721Metadata-tokenURI}."
      },
      "transferFrom(address,address,uint256)": {
        "details": "See {IERC721-transferFrom}."
      },
      "userExpires(uint256)": {
        "details": "The zero value indicates that there is no user",
        "params": {
          "tokenId": "The NFT to get the user expires for"
        },
        "returns": {
          "_0": "The user expires for this NFT"
        }
      },
      "userOf(uint256)": {
        "details": "The zero address indicates that there is no user or the user is expired",
        "params": {
          "tokenId": "The NFT to get the user address for"
        },
        "returns": {
          "_0": "The user address for this NFT"
        }
      }
    },
    "title": "Checkin.symbol",
    "version": 1
  },
  "userdoc": {
    "events": {
      "UpdateUser(uint256,address,uint64)": {
        "notice": "mis lorsque l'utilisateur (`user`) d'un NFT ou que la date d'expiration (`expires`) de l'utilisateur est modifie L'adresse zro pour `user` indique qu'il n'y a pas d'adresse d'utilisateur"
      }
    },
    "kind": "user",
    "methods": {
      "setUser(uint256,address,uint64)": {
        "notice": "set the user and expires of a NFT"
      },
      "userExpires(uint256)": {
        "notice": "Get the user expires of an NFT"
      },
      "userOf(uint256)": {
        "notice": "Get the user address of an NFT"
      }
    },
    "version": 1
  }
}