{
  "contractName": "ERC4907",
  "abi": [
    {
      "inputs": [
        {
          "internalType": "string",
          "name": "name_",
          "type": "string"
        },
        {
          "internalType": "string",
          "name": "symbol_",
          "type": "string"
        }
      ],
      "stateMutability": "nonpayable",
      "type": "constructor"
    },
    {
      "anonymous": false,
      "inputs": [
        {
          "indexed": true,
          "internalType": "address",
          "name": "owner",
          "type": "address"
        },
        {
          "indexed": true,
          "internalType": "address",
          "name": "approved",
          "type": "address"
        },
        {
          "indexed": true,
          "internalType": "uint256",
          "name": "tokenId",
          "type": "uint256"
        }
      ],
      "name": "Approval",
      "type": "event"
    },
    {
      "anonymous": false,
      "inputs": [
        {
          "indexed": true,
          "internalType": "address",
          "name": "owner",
          "type": "address"
        },
        {
          "indexed": true,
          "internalType": "address",
          "name": "operator",
          "type": "address"
        },
        {
          "indexed": false,
          "internalType": "bool",
          "name": "approved",
          "type": "bool"
        }
      ],
      "name": "ApprovalForAll",
      "type": "event"
    },
    {
      "anonymous": false,
      "inputs": [
        {
          "indexed": true,
          "internalType": "address",
          "name": "from",
          "type": "address"
        },
        {
          "indexed": true,
          "internalType": "address",
          "name": "to",
          "type": "address"
        },
        {
          "indexed": true,
          "internalType": "uint256",
          "name": "tokenId",
          "type": "uint256"
        }
      ],
      "name": "Transfer",
      "type": "event"
    },
    {
      "anonymous": false,
      "inputs": [
        {
          "indexed": true,
          "internalType": "uint256",
          "name": "tokenId",
          "type": "uint256"
        },
        {
          "indexed": true,
          "internalType": "address",
          "name": "user",
          "type": "address"
        },
        {
          "indexed": false,
          "internalType": "uint64",
          "name": "expires",
          "type": "uint64"
        }
      ],
      "name": "UpdateUser",
      "type": "event"
    },
    {
      "inputs": [
        {
          "internalType": "address",
          "name": "to",
          "type": "address"
        },
        {
          "internalType": "uint256",
          "name": "tokenId",
          "type": "uint256"
        }
      ],
      "name": "approve",
      "outputs": [],
      "stateMutability": "nonpayable",
      "type": "function"
    },
    {
      "inputs": [
        {
          "internalType": "address",
          "name": "owner",
          "type": "address"
        }
      ],
      "name": "balanceOf",
      "outputs": [
        {
          "internalType": "uint256",
          "name": "",
          "type": "uint256"
        }
      ],
      "stateMutability": "view",
      "type": "function"
    },
    {
      "inputs": [
        {
          "internalType": "uint256",
          "name": "tokenId",
          "type": "uint256"
        }
      ],
      "name": "getApproved",
      "outputs": [
        {
          "internalType": "address",
          "name": "",
          "type": "address"
        }
      ],
      "stateMutability": "view",
      "type": "function"
    },
    {
      "inputs": [
        {
          "internalType": "address",
          "name": "owner",
          "type": "address"
        },
        {
          "internalType": "address",
          "name": "operator",
          "type": "address"
        }
      ],
      "name": "isApprovedForAll",
      "outputs": [
        {
          "internalType": "bool",
          "name": "",
          "type": "bool"
        }
      ],
      "stateMutability": "view",
      "type": "function"
    },
    {
      "inputs": [],
      "name": "name",
      "outputs": [
        {
          "internalType": "string",
          "name": "",
          "type": "string"
        }
      ],
      "stateMutability": "view",
      "type": "function"
    },
    {
      "inputs": [
        {
          "internalType": "uint256",
          "name": "tokenId",
          "type": "uint256"
        }
      ],
      "name": "ownerOf",
      "outputs": [
        {
          "internalType": "address",
          "name": "",
          "type": "address"
        }
      ],
      "stateMutability": "view",
      "type": "function"
    },
    {
      "inputs": [
        {
          "internalType": "address",
          "name": "from",
          "type": "address"
        },
        {
          "internalType": "address",
          "name": "to",
          "type": "address"
        },
        {
          "internalType": "uint256",
          "name": "tokenId",
          "type": "uint256"
        }
      ],
      "name": "safeTransferFrom",
      "outputs": [],
      "stateMutability": "nonpayable",
      "type": "function"
    },
    {
      "inputs": [
        {
          "internalType": "address",
          "name": "from",
          "type": "address"
        },
        {
          "internalType": "address",
          "name": "to",
          "type": "address"
        },
        {
          "internalType": "uint256",
          "name": "tokenId",
          "type": "uint256"
        },
        {
          "internalType": "bytes",
          "name": "data",
          "type": "bytes"
        }
      ],
      "name": "safeTransferFrom",
      "outputs": [],
      "stateMutability": "nonpayable",
      "type": "function"
    },
    {
      "inputs": [
        {
          "internalType": "address",
          "name": "operator",
          "type": "address"
        },
        {
          "internalType": "bool",
          "name": "approved",
          "type": "bool"
        }
      ],
      "name": "setApprovalForAll",
      "outputs": [],
      "stateMutability": "nonpayable",
      "type": "function"
    },
    {
      "inputs": [],
      "name": "symbol",
      "outputs": [
        {
          "internalType": "string",
          "name": "",
          "type": "string"
        }
      ],
      "stateMutability": "view",
      "type": "function"
    },
    {
      "inputs": [
        {
          "internalType": "uint256",
          "name": "tokenId",
          "type": "uint256"
        }
      ],
      "name": "tokenURI",
      "outputs": [
        {
          "internalType": "string",
          "name": "",
          "type": "string"
        }
      ],
      "stateMutability": "view",
      "type": "function"
    },
    {
      "inputs": [
        {
          "internalType": "address",
          "name": "from",
          "type": "address"
        },
        {
          "internalType": "address",
          "name": "to",
          "type": "address"
        },
        {
          "internalType": "uint256",
          "name": "tokenId",
          "type": "uint256"
        }
      ],
      "name": "transferFrom",
      "outputs": [],
      "stateMutability": "nonpayable",
      "type": "function"
    },
    {
      "inputs": [
        {
          "internalType": "uint256",
          "name": "tokenId",
          "type": "uint256"
        },
        {
          "internalType": "address",
          "name": "user",
          "type": "address"
        },
        {
          "internalType": "uint64",
          "name": "expires",
          "type": "uint64"
        }
      ],
      "name": "setUser",
      "outputs": [],
      "stateMutability": "nonpayable",
      "type": "function"
    },
    {
      "inputs": [
        {
          "internalType": "uint256",
          "name": "tokenId",
          "type": "uint256"
        }
      ],
      "name": "userOf",
      "outputs": [
        {
          "internalType": "address",
          "name": "",
          "type": "address"
        }
      ],
      "stateMutability": "view",
      "type": "function"
    },
    {
      "inputs": [
        {
          "internalType": "uint256",
          "name": "tokenId",
          "type": "uint256"
        }
      ],
      "name": "userExpires",
      "outputs": [
        {
          "internalType": "uint256",
          "name": "",
          "type": "uint256"
        }
      ],
      "stateMutability": "view",
      "type": "function"
    },
    {
      "inputs": [
        {
          "internalType": "bytes4",
          "name": "interfaceId",
          "type": "bytes4"
        }
      ],
      "name": "supportsInterface",
      "outputs": [
        {
          "internalType": "bool",
          "name": "",
          "type": "bool"
        }
      ],
      "stateMutability": "view",
      "type": "function"
    }
  ],
  "bytecode": "0x60806040523480156200001157600080fd5b5060405162002cfd38038062002cfd8339818101604052810190620000379190620001fa565b818181600090816200004a9190620004ca565b5080600190816200005c9190620004ca565b5050505050620005b1565b6000604051905090565b600080fd5b600080fd5b600080fd5b600080fd5b6000601f19601f8301169050919050565b7f4e487b7100000000000000000000000000000000000000000000000000000000600052604160045260246000fd5b620000d08262000085565b810181811067ffffffffffffffff82111715620000f257620000f162000096565b5b80604052505050565b60006200010762000067565b9050620001158282620000c5565b919050565b600067ffffffffffffffff82111562000138576200013762000096565b5b620001438262000085565b9050602081019050919050565b60005b838110156200017057808201518184015260208101905062000153565b60008484015250505050565b6000620001936200018d846200011a565b620000fb565b905082815260208101848484011115620001b257620001b162000080565b5b620001bf84828562000150565b509392505050565b600082601f830112620001df57620001de6200007b565b5b8151620001f18482602086016200017c565b91505092915050565b6000806040838503121562000214576200021362000071565b5b600083015167ffffffffffffffff81111562000235576200023462000076565b5b6200024385828601620001c7565b925050602083015167ffffffffffffffff81111562000267576200026662000076565b5b6200027585828601620001c7565b9150509250929050565b600081519050919050565b7f4e487b7100000000000000000000000000000000000000000000000000000000600052602260045260246000fd5b60006002820490506001821680620002d257607f821691505b602082108103620002e857620002e76200028a565b5b50919050565b60008190508160005260206000209050919050565b60006020601f8301049050919050565b600082821b905092915050565b600060088302620003527fffffffffffffffffffffffffffffffffffffffffffffffffffffffffffffffff8262000313565b6200035e868362000313565b95508019841693508086168417925050509392505050565b6000819050919050565b6000819050919050565b6000620003ab620003a56200039f8462000376565b62000380565b62000376565b9050919050565b6000819050919050565b620003c7836200038a565b620003df620003d682620003b2565b84845462000320565b825550505050565b600090565b620003f6620003e7565b62000403818484620003bc565b505050565b5b818110156200042b576200041f600082620003ec565b60018101905062000409565b5050565b601f8211156200047a576200044481620002ee565b6200044f8462000303565b810160208510156200045f578190505b620004776200046e8562000303565b83018262000408565b50505b505050565b600082821c905092915050565b60006200049f600019846008026200047f565b1980831691505092915050565b6000620004ba83836200048c565b9150826002028217905092915050565b620004d5826200027f565b67ffffffffffffffff811115620004f157620004f062000096565b5b620004fd8254620002b9565b6200050a8282856200042f565b600060209050601f8311600181146200054257600084156200052d578287015190505b620005398582620004ac565b865550620005a9565b601f1984166200055286620002ee565b60005b828110156200057c5784890151825560018201915060208501945060208101905062000555565b868310156200059c578489015162000598601f8916826200048c565b8355505b6001600288020188555050505b505050505050565b61273c80620005c16000396000f3fe608060405234801561001057600080fd5b50600436106101005760003560e01c80638fc88c4811610097578063c2f1f14a11610066578063c2f1f14a146102bd578063c87b56dd146102ed578063e030565e1461031d578063e985e9c51461033957610100565b80638fc88c481461023757806395d89b4114610267578063a22cb46514610285578063b88d4fde146102a157610100565b806323b872dd116100d357806323b872dd1461019f57806342842e0e146101bb5780636352211e146101d757806370a082311461020757610100565b806301ffc9a71461010557806306fdde0314610135578063081812fc14610153578063095ea7b314610183575b600080fd5b61011f600480360381019061011a9190611961565b610369565b60405161012c91906119a9565b60405180910390f35b61013d6103e3565b60405161014a9190611a54565b60405180910390f35b61016d60048036038101906101689190611aac565b610475565b60405161017a9190611b1a565b60405180910390f35b61019d60048036038101906101989190611b61565b6104bb565b005b6101b960048036038101906101b49190611ba1565b6105d2565b005b6101d560048036038101906101d09190611ba1565b610632565b005b6101f160048036038101906101ec9190611aac565b610652565b6040516101fe9190611b1a565b60405180910390f35b610221600480360381019061021c9190611bf4565b6106d8565b60405161022e9190611c30565b60405180910390f35b610251600480360381019061024c9190611aac565b61078f565b60405161025e9190611c30565b60405180910390f35b61026f6107cd565b60405161027c9190611a54565b60405180910390f35b61029f600480360381019061029a9190611c77565b61085f565b005b6102bb60048036038101906102b69190611dec565b610875565b005b6102d760048036038101906102d29190611aac565b6108d7565b6040516102e49190611b1a565b60405180910390f35b61030760048036038101906103029190611aac565b61095c565b6040516103149190611a54565b60405180910390f35b61033760048036038101906103329190611eaf565b6109c4565b005b610353600480360381019061034e9190611f02565b610ae7565b60405161036091906119a9565b60405180910390f35b60007fad092b5c000000000000000000000000000000000000000000000000000000007bffffffffffffffffffffffffffffffffffffffffffffffffffffffff1916827bffffffffffffffffffffffffffffffffffffffffffffffffffffffff191614806103dc57506103db82610b7b565b5b9050919050565b6060600080546103f290611f71565b80601f016020809104026020016040519081016040528092919081815260200182805461041e90611f71565b801561046b5780601f106104405761010080835404028352916020019161046b565b820191906000526020600020905b81548152906001019060200180831161044e57829003601f168201915b5050505050905090565b600061048082610c5d565b6004600083815260200190815260200160002060009054906101000a900473ffffffffffffffffffffffffffffffffffffffff169050919050565b60006104c682610652565b90508073ffffffffffffffffffffffffffffffffffffffff168373ffffffffffffffffffffffffffffffffffffffff1603610536576040517f08c379a000000000000000000000000000000000000000000000000000000000815260040161052d90612014565b60405180910390fd5b8073ffffffffffffffffffffffffffffffffffffffff16610555610ca8565b73ffffffffffffffffffffffffffffffffffffffff16148061058457506105838161057e610ca8565b610ae7565b5b6105c3576040517f08c379a00000000000000000000000000000000000000000000000000000000081526004016105ba906120a6565b60405180910390fd5b6105cd8383610cb0565b505050565b6105e36105dd610ca8565b82610d69565b610622576040517f08c379a000000000000000000000000000000000000000000000000000000000815260040161061990612138565b60405180910390fd5b61062d838383610dfe565b505050565b61064d83838360405180602001604052806000815250610875565b505050565b60008061065e836110f7565b9050600073ffffffffffffffffffffffffffffffffffffffff168173ffffffffffffffffffffffffffffffffffffffff16036106cf576040517f08c379a00000000000000000000000000000000000000000000000000000000081526004016106c6906121a4565b60405180910390fd5b80915050919050565b60008073ffffffffffffffffffffffffffffffffffffffff168273ffffffffffffffffffffffffffffffffffffffff1603610748576040517f08c379a000000000000000000000000000000000000000000000000000000000815260040161073f90612236565b60405180910390fd5b600360008373ffffffffffffffffffffffffffffffffffffffff1673ffffffffffffffffffffffffffffffffffffffff168152602001908152602001600020549050919050565b60006006600083815260200190815260200160002060000160149054906101000a900467ffffffffffffffff1667ffffffffffffffff169050919050565b6060600180546107dc90611f71565b80601f016020809104026020016040519081016040528092919081815260200182805461080890611f71565b80156108555780601f1061082a57610100808354040283529160200191610855565b820191906000526020600020905b81548152906001019060200180831161083857829003601f168201915b5050505050905090565b61087161086a610ca8565b8383611134565b5050565b610886610880610ca8565b83610d69565b6108c5576040517f08c379a00000000000000000000000000000000000000000000000000000000081526004016108bc90612138565b60405180910390fd5b6108d1848484846112a0565b50505050565b6000426006600084815260200190815260200160002060000160149054906101000a900467ffffffffffffffff1667ffffffffffffffff1610610952576006600083815260200190815260200160002060000160009054906101000a900473ffffffffffffffffffffffffffffffffffffffff169050610957565b600090505b919050565b606061096782610c5d565b60006109716112fc565b9050600081511161099157604051806020016040528060008152506109bc565b8061099b84611313565b6040516020016109ac929190612292565b6040516020818303038152906040525b915050919050565b6109ce3384610d69565b610a0d576040517f08c379a0000000000000000000000000000000000000000000000000000000008152600401610a0490612328565b60405180910390fd5b6000600660008581526020019081526020016000209050828160000160006101000a81548173ffffffffffffffffffffffffffffffffffffffff021916908373ffffffffffffffffffffffffffffffffffffffff160217905550818160000160146101000a81548167ffffffffffffffff021916908367ffffffffffffffff1602179055508273ffffffffffffffffffffffffffffffffffffffff16847f4e06b4e7000e659094299b3533b47b6aa8ad048e95e872d23d1f4ee55af89cfe84604051610ad99190612357565b60405180910390a350505050565b6000600560008473ffffffffffffffffffffffffffffffffffffffff1673ffffffffffffffffffffffffffffffffffffffff16815260200190815260200160002060008373ffffffffffffffffffffffffffffffffffffffff1673ffffffffffffffffffffffffffffffffffffffff16815260200190815260200160002060009054906101000a900460ff16905092915050565b60007f80ac58cd000000000000000000000000000000000000000000000000000000007bffffffffffffffffffffffffffffffffffffffffffffffffffffffff1916827bffffffffffffffffffffffffffffffffffffffffffffffffffffffff19161480610c4657507f5b5e139f000000000000000000000000000000000000000000000000000000007bffffffffffffffffffffffffffffffffffffffffffffffffffffffff1916827bffffffffffffffffffffffffffffffffffffffffffffffffffffffff1916145b80610c565750610c55826113e1565b5b9050919050565b610c668161144b565b610ca5576040517f08c379a0000000000000000000000000000000000000000000000000000000008152600401610c9c906121a4565b60405180910390fd5b50565b600033905090565b816004600083815260200190815260200160002060006101000a81548173ffffffffffffffffffffffffffffffffffffffff021916908373ffffffffffffffffffffffffffffffffffffffff160217905550808273ffffffffffffffffffffffffffffffffffffffff16610d2383610652565b73ffffffffffffffffffffffffffffffffffffffff167f8c5be1e5ebec7d5bd14f71427d1e84f3dd0314c0f7b2291e5b200ac8c7c3b92560405160405180910390a45050565b600080610d7583610652565b90508073ffffffffffffffffffffffffffffffffffffffff168473ffffffffffffffffffffffffffffffffffffffff161480610db75750610db68185610ae7565b5b80610df557508373ffffffffffffffffffffffffffffffffffffffff16610ddd84610475565b73ffffffffffffffffffffffffffffffffffffffff16145b91505092915050565b8273ffffffffffffffffffffffffffffffffffffffff16610e1e82610652565b73ffffffffffffffffffffffffffffffffffffffff1614610e74576040517f08c379a0000000000000000000000000000000000000000000000000000000008152600401610e6b906123e4565b60405180910390fd5b600073ffffffffffffffffffffffffffffffffffffffff168273ffffffffffffffffffffffffffffffffffffffff1603610ee3576040517f08c379a0000000000000000000000000000000000000000000000000000000008152600401610eda90612476565b60405180910390fd5b610ef0838383600161148c565b8273ffffffffffffffffffffffffffffffffffffffff16610f1082610652565b73ffffffffffffffffffffffffffffffffffffffff1614610f66576040517f08c379a0000000000000000000000000000000000000000000000000000000008152600401610f5d906123e4565b60405180910390fd5b6004600082815260200190815260200160002060006101000a81549073ffffffffffffffffffffffffffffffffffffffff02191690556001600360008573ffffffffffffffffffffffffffffffffffffffff1673ffffffffffffffffffffffffffffffffffffffff168152602001908152602001600020600082825403925050819055506001600360008473ffffffffffffffffffffffffffffffffffffffff1673ffffffffffffffffffffffffffffffffffffffff16815260200190815260200160002060008282540192505081905550816002600083815260200190815260200160002060006101000a81548173ffffffffffffffffffffffffffffffffffffffff021916908373ffffffffffffffffffffffffffffffffffffffff160217905550808273ffffffffffffffffffffffffffffffffffffffff168473ffffffffffffffffffffffffffffffffffffffff167fddf252ad1be2c89b69c2b068fc378daa952ba7f163c4a11628f55a4df523b3ef60405160405180910390a46110f283838360016115ec565b505050565b60006002600083815260200190815260200160002060009054906101000a900473ffffffffffffffffffffffffffffffffffffffff169050919050565b8173ffffffffffffffffffffffffffffffffffffffff168373ffffffffffffffffffffffffffffffffffffffff16036111a2576040517f08c379a0000000000000000000000000000000000000000000000000000000008152600401611199906124e2565b60405180910390fd5b80600560008573ffffffffffffffffffffffffffffffffffffffff1673ffffffffffffffffffffffffffffffffffffffff16815260200190815260200160002060008473ffffffffffffffffffffffffffffffffffffffff1673ffffffffffffffffffffffffffffffffffffffff16815260200190815260200160002060006101000a81548160ff0219169083151502179055508173ffffffffffffffffffffffffffffffffffffffff168373ffffffffffffffffffffffffffffffffffffffff167f17307eab39ab6107e8899845ad3d59bd9653f200f220920489ca2b5937696c318360405161129391906119a9565b60405180910390a3505050565b6112ab848484610dfe565b6112b7848484846115f2565b6112f6576040517f08c379a00000000000000000000000000000000000000000000000000000000081526004016112ed90612574565b60405180910390fd5b50505050565b606060405180602001604052806000815250905090565b60606000600161132284611779565b01905060008167ffffffffffffffff81111561134157611340611cc1565b5b6040519080825280601f01601f1916602001820160405280156113735781602001600182028036833780820191505090505b509050600082602001820190505b6001156113d6578080600190039150507f3031323334353637383961626364656600000000000000000000000000000000600a86061a8153600a85816113ca576113c9612594565b5b04945060008503611381575b819350505050919050565b60007f01ffc9a7000000000000000000000000000000000000000000000000000000007bffffffffffffffffffffffffffffffffffffffffffffffffffffffff1916827bffffffffffffffffffffffffffffffffffffffffffffffffffffffff1916149050919050565b60008073ffffffffffffffffffffffffffffffffffffffff1661146d836110f7565b73ffffffffffffffffffffffffffffffffffffffff1614159050919050565b611498848484846118cc565b8273ffffffffffffffffffffffffffffffffffffffff168473ffffffffffffffffffffffffffffffffffffffff16141580156115375750600073ffffffffffffffffffffffffffffffffffffffff166006600084815260200190815260200160002060000160009054906101000a900473ffffffffffffffffffffffffffffffffffffffff1673ffffffffffffffffffffffffffffffffffffffff1614155b156115e65760066000838152602001908152602001600020600080820160006101000a81549073ffffffffffffffffffffffffffffffffffffffff02191690556000820160146101000a81549067ffffffffffffffff02191690555050600073ffffffffffffffffffffffffffffffffffffffff16827f4e06b4e7000e659094299b3533b47b6aa8ad048e95e872d23d1f4ee55af89cfe60006040516115dd9190612608565b60405180910390a35b50505050565b50505050565b60006116138473ffffffffffffffffffffffffffffffffffffffff166118d2565b1561176c578373ffffffffffffffffffffffffffffffffffffffff1663150b7a0261163c610ca8565b8786866040518563ffffffff1660e01b815260040161165e9493929190612678565b6020604051808303816000875af192505050801561169a57506040513d601f19601f8201168201806040525081019061169791906126d9565b60015b61171c573d80600081146116ca576040519150601f19603f3d011682016040523d82523d6000602084013e6116cf565b606091505b506000815103611714576040517f08c379a000000000000000000000000000000000000000000000000000000000815260040161170b90612574565b60405180910390fd5b805181602001fd5b63150b7a0260e01b7bffffffffffffffffffffffffffffffffffffffffffffffffffffffff1916817bffffffffffffffffffffffffffffffffffffffffffffffffffffffff191614915050611771565b600190505b949350505050565b600080600090507a184f03e93ff9f4daa797ed6e38ed64bf6a1f01000000000000000083106117d7577a184f03e93ff9f4daa797ed6e38ed64bf6a1f01000000000000000083816117cd576117cc612594565b5b0492506040810190505b6d04ee2d6d415b85acef81000000008310611814576d04ee2d6d415b85acef8100000000838161180a57611809612594565b5b0492506020810190505b662386f26fc10000831061184357662386f26fc10000838161183957611838612594565b5b0492506010810190505b6305f5e100831061186c576305f5e100838161186257611861612594565b5b0492506008810190505b612710831061189157612710838161188757611886612594565b5b0492506004810190505b606483106118b457606483816118aa576118a9612594565b5b0492506002810190505b600a83106118c3576001810190505b80915050919050565b50505050565b6000808273ffffffffffffffffffffffffffffffffffffffff163b119050919050565b6000604051905090565b600080fd5b600080fd5b60007fffffffff0000000000000000000000000000000000000000000000000000000082169050919050565b61193e81611909565b811461194957600080fd5b50565b60008135905061195b81611935565b92915050565b600060208284031215611977576119766118ff565b5b60006119858482850161194c565b91505092915050565b60008115159050919050565b6119a38161198e565b82525050565b60006020820190506119be600083018461199a565b92915050565b600081519050919050565b600082825260208201905092915050565b60005b838110156119fe5780820151818401526020810190506119e3565b60008484015250505050565b6000601f19601f8301169050919050565b6000611a26826119c4565b611a3081856119cf565b9350611a408185602086016119e0565b611a4981611a0a565b840191505092915050565b60006020820190508181036000830152611a6e8184611a1b565b905092915050565b6000819050919050565b611a8981611a76565b8114611a9457600080fd5b50565b600081359050611aa681611a80565b92915050565b600060208284031215611ac257611ac16118ff565b5b6000611ad084828501611a97565b91505092915050565b600073ffffffffffffffffffffffffffffffffffffffff82169050919050565b6000611b0482611ad9565b9050919050565b611b1481611af9565b82525050565b6000602082019050611b2f6000830184611b0b565b92915050565b611b3e81611af9565b8114611b4957600080fd5b50565b600081359050611b5b81611b35565b92915050565b60008060408385031215611b7857611b776118ff565b5b6000611b8685828601611b4c565b9250506020611b9785828601611a97565b9150509250929050565b600080600060608486031215611bba57611bb96118ff565b5b6000611bc886828701611b4c565b9350506020611bd986828701611b4c565b9250506040611bea86828701611a97565b9150509250925092565b600060208284031215611c0a57611c096118ff565b5b6000611c1884828501611b4c565b91505092915050565b611c2a81611a76565b82525050565b6000602082019050611c456000830184611c21565b92915050565b611c548161198e565b8114611c5f57600080fd5b50565b600081359050611c7181611c4b565b92915050565b60008060408385031215611c8e57611c8d6118ff565b5b6000611c9c85828601611b4c565b9250506020611cad85828601611c62565b9150509250929050565b600080fd5b600080fd5b7f4e487b7100000000000000000000000000000000000000000000000000000000600052604160045260246000fd5b611cf982611a0a565b810181811067ffffffffffffffff82111715611d1857611d17611cc1565b5b80604052505050565b6000611d2b6118f5565b9050611d378282611cf0565b919050565b600067ffffffffffffffff821115611d5757611d56611cc1565b5b611d6082611a0a565b9050602081019050919050565b82818337600083830152505050565b6000611d8f611d8a84611d3c565b611d21565b905082815260208101848484011115611dab57611daa611cbc565b5b611db6848285611d6d565b509392505050565b600082601f830112611dd357611dd2611cb7565b5b8135611de3848260208601611d7c565b91505092915050565b60008060008060808587031215611e0657611e056118ff565b5b6000611e1487828801611b4c565b9450506020611e2587828801611b4c565b9350506040611e3687828801611a97565b925050606085013567ffffffffffffffff811115611e5757611e56611904565b5b611e6387828801611dbe565b91505092959194509250565b600067ffffffffffffffff82169050919050565b611e8c81611e6f565b8114611e9757600080fd5b50565b600081359050611ea981611e83565b92915050565b600080600060608486031215611ec857611ec76118ff565b5b6000611ed686828701611a97565b9350506020611ee786828701611b4c565b9250506040611ef886828701611e9a565b9150509250925092565b60008060408385031215611f1957611f186118ff565b5b6000611f2785828601611b4c565b9250506020611f3885828601611b4c565b9150509250929050565b7f4e487b7100000000000000000000000000000000000000000000000000000000600052602260045260246000fd5b60006002820490506001821680611f8957607f821691505b602082108103611f9c57611f9b611f42565b5b50919050565b7f4552433732313a20617070726f76616c20746f2063757272656e74206f776e6560008201527f7200000000000000000000000000000000000000000000000000000000000000602082015250565b6000611ffe6021836119cf565b915061200982611fa2565b604082019050919050565b6000602082019050818103600083015261202d81611ff1565b9050919050565b7f4552433732313a20617070726f76652063616c6c6572206973206e6f7420746f60008201527f6b656e206f776e6572206f7220617070726f76656420666f7220616c6c000000602082015250565b6000612090603d836119cf565b915061209b82612034565b604082019050919050565b600060208201905081810360008301526120bf81612083565b9050919050565b7f4552433732313a2063616c6c6572206973206e6f7420746f6b656e206f776e6560008201527f72206f7220617070726f76656400000000000000000000000000000000000000602082015250565b6000612122602d836119cf565b915061212d826120c6565b604082019050919050565b6000602082019050818103600083015261215181612115565b9050919050565b7f4552433732313a20696e76616c696420746f6b656e2049440000000000000000600082015250565b600061218e6018836119cf565b915061219982612158565b602082019050919050565b600060208201905081810360008301526121bd81612181565b9050919050565b7f4552433732313a2061646472657373207a65726f206973206e6f74206120766160008201527f6c6964206f776e65720000000000000000000000000000000000000000000000602082015250565b60006122206029836119cf565b915061222b826121c4565b604082019050919050565b6000602082019050818103600083015261224f81612213565b9050919050565b600081905092915050565b600061226c826119c4565b6122768185612256565b93506122868185602086016119e0565b80840191505092915050565b600061229e8285612261565b91506122aa8284612261565b91508190509392505050565b7f4552433732313a207472616e736665722063616c6c6572206973206e6f74206f60008201527f776e6572206e6f7220617070726f766564000000000000000000000000000000602082015250565b60006123126031836119cf565b915061231d826122b6565b604082019050919050565b6000602082019050818103600083015261234181612305565b9050919050565b61235181611e6f565b82525050565b600060208201905061236c6000830184612348565b92915050565b7f4552433732313a207472616e736665722066726f6d20696e636f72726563742060008201527f6f776e6572000000000000000000000000000000000000000000000000000000602082015250565b60006123ce6025836119cf565b91506123d982612372565b604082019050919050565b600060208201905081810360008301526123fd816123c1565b9050919050565b7f4552433732313a207472616e7366657220746f20746865207a65726f2061646460008201527f7265737300000000000000000000000000000000000000000000000000000000602082015250565b60006124606024836119cf565b915061246b82612404565b604082019050919050565b6000602082019050818103600083015261248f81612453565b9050919050565b7f4552433732313a20617070726f766520746f2063616c6c657200000000000000600082015250565b60006124cc6019836119cf565b91506124d782612496565b602082019050919050565b600060208201905081810360008301526124fb816124bf565b9050919050565b7f4552433732313a207472616e7366657220746f206e6f6e20455243373231526560008201527f63656976657220696d706c656d656e7465720000000000000000000000000000602082015250565b600061255e6032836119cf565b915061256982612502565b604082019050919050565b6000602082019050818103600083015261258d81612551565b9050919050565b7f4e487b7100000000000000000000000000000000000000000000000000000000600052601260045260246000fd5b6000819050919050565b6000819050919050565b60006125f26125ed6125e8846125c3565b6125cd565b611e6f565b9050919050565b612602816125d7565b82525050565b600060208201905061261d60008301846125f9565b92915050565b600081519050919050565b600082825260208201905092915050565b600061264a82612623565b612654818561262e565b93506126648185602086016119e0565b61266d81611a0a565b840191505092915050565b600060808201905061268d6000830187611b0b565b61269a6020830186611b0b565b6126a76040830185611c21565b81810360608301526126b9818461263f565b905095945050505050565b6000815190506126d381611935565b92915050565b6000602082840312156126ef576126ee6118ff565b5b60006126fd848285016126c4565b9150509291505056fea264697066735822122093e7409fa84b8237b3e444c2fe0c59296b23ee8d43b3881293409528cf84987c64736f6c63430008120033",
  "immutableReferences": {},
  "source": "// SPDX-License-Identifier: CC0-1.0\npragma solidity ^0.8.0;\n\nimport \"@openzeppelin/contracts/token/ERC721/ERC721.sol\";\nimport \"./IERC4907.sol\";\n\ncontract ERC4907 is ERC721, IERC4907 {\n    struct UserInfo\n    {\n        address user;   // address of user role\n        uint64 expires; // unix timestamp, user expires\n    }\n\n    mapping (uint256  => UserInfo) internal _users;\n\n    constructor(string memory name_, string memory symbol_)\n     ERC721(name_,symbol_)\n     {\n     }\n\n    /// @notice set the user and expires of a NFT\n    /// @dev The zero address indicates there is no user\n    /// Throws if `tokenId` is not valid NFT\n    /// @param user  The new user of the NFT\n    /// @param expires  UNIX timestamp, The new user could use the NFT before expires\n    function setUser(uint256 tokenId, address user, uint64 expires) public override virtual{\n        require(_isApprovedOrOwner(msg.sender, tokenId),\"ERC721: transfer caller is not owner nor approved\");\n        UserInfo storage info =  _users[tokenId];\n        info.user = user;\n        info.expires = expires;\n        emit UpdateUser(tokenId,user,expires);\n    }\n\n    /// @notice Get the user address of an NFT\n    /// @dev The zero address indicates that there is no user or the user is expired\n    /// @param tokenId The NFT to get the user address for\n    /// @return The user address for this NFT\n    function userOf(uint256 tokenId)public view virtual override returns(address){\n        if( uint256(_users[tokenId].expires) >=  block.timestamp){\n            return  _users[tokenId].user;\n        }\n        else{\n            return address(0);\n        }\n    }\n\n    /// @notice Get the user expires of an NFT\n    /// @dev The zero value indicates that there is no user\n    /// @param tokenId The NFT to get the user expires for\n    /// @return The user expires for this NFT\n    function userExpires(uint256 tokenId) public view override virtual returns(uint256){\n        return _users[tokenId].expires;\n    }\n\n    /// @dev See {IERC165-supportsInterface}.\n    function supportsInterface(bytes4 interfaceId) public view virtual override returns (bool) {\n        return interfaceId == type(IERC4907).interfaceId || super.supportsInterface(interfaceId);\n    }\n\n    function _beforeTokenTransfer(\n        address from,\n        address to,\n        uint256 tokenId,\n        uint256 batchSize\n    ) internal virtual override{\n        super._beforeTokenTransfer(from, to, tokenId, batchSize);\n\n        if (from != to && _users[tokenId].user != address(0)) {\n            delete _users[tokenId];\n            emit UpdateUser(tokenId, address(0), 0);\n        }\n    }\n}",
  "sourcePath": "/home/charlyprez/Checkin/truffle/contracts/ERC4907.sol",
  "compiler": {
    "name": "solc",
    "version": "0.8.18+commit.87f61d96.Emscripten.clang"
  },
  "schemaVersion": "3.4.14",
  "updatedAt": "2023-07-21T20:17:28.065Z",
  "devdoc": {
    "events": {
      "Approval(address,address,uint256)": {
        "details": "Emitted when `owner` enables `approved` to manage the `tokenId` token."
      },
      "ApprovalForAll(address,address,bool)": {
        "details": "Emitted when `owner` enables or disables (`approved`) `operator` to manage all of its assets."
      },
      "Transfer(address,address,uint256)": {
        "details": "Emitted when `tokenId` token is transferred from `from` to `to`."
      }
    },
    "kind": "dev",
    "methods": {
      "approve(address,uint256)": {
        "details": "See {IERC721-approve}."
      },
      "balanceOf(address)": {
        "details": "See {IERC721-balanceOf}."
      },
      "getApproved(uint256)": {
        "details": "See {IERC721-getApproved}."
      },
      "isApprovedForAll(address,address)": {
        "details": "See {IERC721-isApprovedForAll}."
      },
      "name()": {
        "details": "See {IERC721Metadata-name}."
      },
      "ownerOf(uint256)": {
        "details": "See {IERC721-ownerOf}."
      },
      "safeTransferFrom(address,address,uint256)": {
        "details": "See {IERC721-safeTransferFrom}."
      },
      "safeTransferFrom(address,address,uint256,bytes)": {
        "details": "See {IERC721-safeTransferFrom}."
      },
      "setApprovalForAll(address,bool)": {
        "details": "See {IERC721-setApprovalForAll}."
      },
      "setUser(uint256,address,uint64)": {
        "details": "The zero address indicates there is no user Throws if `tokenId` is not valid NFT",
        "params": {
          "expires": "UNIX timestamp, The new user could use the NFT before expires",
          "user": "The new user of the NFT"
        }
      },
      "supportsInterface(bytes4)": {
        "details": "See {IERC165-supportsInterface}."
      },
      "symbol()": {
        "details": "See {IERC721Metadata-symbol}."
      },
      "tokenURI(uint256)": {
        "details": "See {IERC721Metadata-tokenURI}."
      },
      "transferFrom(address,address,uint256)": {
        "details": "See {IERC721-transferFrom}."
      },
      "userExpires(uint256)": {
        "details": "The zero value indicates that there is no user",
        "params": {
          "tokenId": "The NFT to get the user expires for"
        },
        "returns": {
          "_0": "The user expires for this NFT"
        }
      },
      "userOf(uint256)": {
        "details": "The zero address indicates that there is no user or the user is expired",
        "params": {
          "tokenId": "The NFT to get the user address for"
        },
        "returns": {
          "_0": "The user address for this NFT"
        }
      }
    },
    "version": 1
  },
  "userdoc": {
    "events": {
      "UpdateUser(uint256,address,uint64)": {
        "notice": "mis lorsque l'utilisateur (`user`) d'un NFT ou que la date d'expiration (`expires`) de l'utilisateur est modifie L'adresse zro pour `user` indique qu'il n'y a pas d'adresse d'utilisateur"
      }
    },
    "kind": "user",
    "methods": {
      "setUser(uint256,address,uint64)": {
        "notice": "set the user and expires of a NFT"
      },
      "userExpires(uint256)": {
        "notice": "Get the user expires of an NFT"
      },
      "userOf(uint256)": {
        "notice": "Get the user address of an NFT"
      }
    },
    "version": 1
  }
}